:020000040C00EE
:100000000008001001020008B1020008B102000857
:10001000B1020008B1020008B102000800000000AF
:10002000000000000000000000000000B102000815
:10003000B102000800000000B10200083D360008CF
:10004000B1020008B1020008B1020008B1020008C4
:10005000B1020008B1020008B1020008B1020008B4
:10006000B1020008000000000000000000000000D5
:10007000B102000800000000B1020008B10200084F
:1000800011360008B1020008B1020008B1020008F0
:10009000B1020008B1020008B1020008B102000874
:1000A000B1020008B1020008B1020008B102000864
:1000B000B1020008B1020008B1020008B102000854
:1000C000B1020008B1020008B1020008B102000844
:1000D000B1020008B1020008B1020008B102000834
:1000E000B1020008B1020008B1020008B102000824
:1000F000B1020008B1020008B1020008B102000814
:10010000B1020008B1020008B1020008B102000803
:10011000B1020008B1020008B1020008B1020008F3
:10012000B1020008B1020008B1020008B1020008E3
:10013000B1020008B1020008B1020008B1020008D3
:10014000B1020008B1020008B1020008B1020008C3
:10015000B1020008B1020008B1020008B1020008B3
:10016000000000000000000000000000000000008F
:10017000B1020008B1020008B1020008B102000893
:10018000B1020008B1020008B1020008B102000883
:10019000B1020008B1020008B1020008B102000873
:1001A000B1020008B1020008812F0008712F000879
:1001B000B1020008B1020008B1020008B102000853
:1001C000B1020008B1020008B1020008B102000843
:1001D000B1020008B1020008B102000800000000EE
:1001E000B1020008B1020008B1020008B102000823
:1001F000B102000800000000B10200080000000089
:10020000DFF88CD023488047234C244DAC4209DAD8
:1002100021686268A368043BA2BFC858D050FAE7BF
:100220000C34F3E71E4B1F4CA34208DA19685A68D6
:100230000020043AA4BF8850FBE70833F4E71A48CB
:1002400080471A48804700008087000C000000208B
:1002500068010000E888000C000000300000000089
:100260008087000C00080010000000008087000C50
:1002700000080010000000006801002038020000A3
:100280000000003000000000000800100000000026
:1002900000080010B50200084802000878020008B3
:1002A00078020008900200087142000881370008B7
:1002B000FEE7000098B500AF054A4FF00053144622
:1002C0000FCB84E80F0002F0F5FE02F05DFF98BD51
:1002D000C4FF002080B584B000AF2F4BDB6803F46F
:1002E0008033002B3ED02D4BDB6803F00103002B45
:1002F00002D02B4BFB6002E002F03CFFF860274B82
:100300001B6803F00403002B20D0244B9B6803F0F0
:1003100070631B0E0133BB60204B9B6803F4FE43EC
:100320001B0A01337B601D4B9B6803F4FE031B0C0F
:1003300001333B60BB683A6802FB03F3FA68B2FB27
:10034000F3F37A6802FB03F3FB600DE0134B9B6849
:1003500003F07F0301333B60FA683B68B2FBF3F3C1
:10036000FB6001E00E4BFB600B4BDB68DBB2013343
:10037000FA68B2FBF3F3FB60074B1B6903F0010360
:100380000133FA68B2FBF3F3FB60064AFB681360C3
:100390001037BD4680BD00BF0046005010470050DA
:1003A00000366E01C0FF002080B483B000AF7860DB
:1003B0007B68D3F8143103F48053002B14BF01235E
:1003C0000023DBB218460C37BD465DF8047B70474E
:1003D00080B483B000AF78607B68D3F8143103F445
:1003E0000063002B14BF01230023DBB218460C3737
:1003F000BD465DF8047B704780B483B000AF786081
:100400007B689B6C18460C37BD465DF8047B7047D3
:1004100080B483B000AF786039607B68DA6C3B6889
:100420001A437B68DA640C37BD465DF8047B70477D
:1004300080B400AFBD465DF8047B704780B582B0E4
:1004400000AF0346FB71274B9B68184678210022BA
:1004500001F016F900E000BF224B9B681846FFF739
:10046000CBFF034603F40073002BF4D01D4B9B68B5
:1004700018464FF40071FFF7CBFF00E000BF194BA7
:100480009B681846FFF790FF0346002BF6D1154BEB
:100490009B681846002101F04DF900E000BF114BA8
:1004A0009B681846FFF780FF0346002BF6D10D4BE3
:1004B0009A68FB791046194601F03CF900BF094BD8
:1004C0009B681846FFF784FF034683F00103DBB205
:1004D000002BF4D1034B9B68184601F005F908374F
:1004E000BD4680BD8803002080B584B000AF786031
:1004F00039602E4B9B6818467821002201F0C0F825
:1005000000E000BF294B9B681846FFF775FF0346C4
:1005100003F40073002BF4D0244B9B6818464FF46F
:100520000071FFF775FF00E000BF204B9B68184685
:10053000FFF73AFF0346002BF6D11C4B9B68184689
:10054000402101F0F7F80023FB6016E000E000BF57
:10055000164B9B681846FFF727FF0346002BF6D182
:10056000124B99687A68FB6813441B780846194651
:1005700001F0E0F8FB680133FB60FA683B689A42DF
:10058000E4D300BF094B9B681846FFF721FF0346E1
:1005900083F00103DBB2002BF4D1044B9B681846B7
:1005A00001F0A2F81037BD4680BD00BF88030020CF
:1005B00080B582B000AF78603960374A7B6893605D
:1005C000354A3B68D360FFF733FF334BDB68642069
:1005D0009847002000F0F8F92020FFF72FFF0020B7
:1005E000FFF72CFFB020FFF729FFC820FFF726FFF9
:1005F0000020FFF723FF1020FFF720FF4020FFF728
:100600001DFFFF2000F0CEF9A120FFF717FFA62065
:10061000FFF714FFA820FFF711FF1F20FFF70EFFC1
:10062000A420FFF70BFFD320FFF708FF0020FFF700
:1006300005FFD520FFF702FFF020FFF7FFFED920CE
:10064000FFF7FCFE2220FFF7F9FEDA20FFF7F6FEA7
:100650000220FFF7F3FEDB20FFF7F0FE2020FFF77C
:10066000EDFE8D20FFF7EAFE1420FFF7E7FE0120E4
:1006700000F0AAF9002000F011F800F031F8064B64
:1006800000221A80044B00225A80034B01225A7127
:100690000837BD4680BD00BF8803002080B485B008
:1006A00000AF0346FB710023FB600DE0FB79002BDC
:1006B00001D1002100E0FF21084AFB6813440A46EB
:1006C0001A70FB680133FB60FB68B3F5027FEDD362
:1006D0001437BD465DF8047B704700BF68010020F9
:1006E00080B582B000AF0023FB711AE0FB79503B6C
:1006F000DBB21846FFF7A2FE0020FFF79FFE102096
:10070000FFF79CFEFA7913469B0113445B001A46DF
:10071000074B134418468221FFF7E6FEFB790133AD
:10072000FB71FB79032BE1D90837BD4680BD00BFC3
:100730006801002080B483B000AF0346FB710B4614
:10074000BB7113467B71FB79812B02D8BB791F2BC0
:1007500000D950E02A4B1B79002B06D07B79002B67
:100760000CBF01230023DBB27B717B79012B20D1ED
:10077000FA79BB79DB08D8B201460B469B010B44E2
:100780005B001A44F97903469B0103445B000B4468
:100790001C49CB5CD8B2BB7903F00703012101FAF5
:1007A00003F3DBB201460B43DBB2D9B2154B9954CC
:1007B00021E0FA79BB79DB08D8B201460B469B01F0
:1007C0000B445B001A44F97903469B0103445B0028
:1007D0000B440C49CB5CD8B2BB7903F00703012171
:1007E00001FA03F3DBB2DB43DBB201460B40DBB2C1
:1007F000D9B2044B99540C37BD465DF8047B704761
:10080000880300206801002090B589B000AF04463D
:10081000381D80E806001A462346FB731346BB7357
:10082000FB7B1F2B02D9FB7B7E2B01D9002371E0C0
:100830003A4B1B881A463B791344822B06DC374B14
:100840005B881A467B791344202B01DD002361E08D
:100850000023FB6150E0BA68FB7B203B797901FB08
:1008600003F31946FB690B445B0013441B887B614F
:100870000023BB6138E0BB697A6902FA03F303F431
:100880000043002B14D0254B1B88DAB2BB69DBB2C6
:100890001344D9B2214B5B88DAB2FB69DBB2134453
:1008A000DAB2BB7B084611461A46FFF743FF18E051
:1008B0001A4B1B88DAB2BB69DBB21344D9B2174BAF
:1008C0005B88DAB2FB69DBB21344DAB2BB7B002B84
:1008D0000CBF01230023DBB2084611461A46FFF77E
:1008E00029FFBB690133BB613B791A46BB699A4258
:1008F000C1D8FB690133FB617B791A46FB699A42D7
:10090000A9D8064B1A883B799BB213449AB2034B81
:100910001A80FB7B18462437BD4690BD8803002013
:1009200090B585B000AFF860381D80E80600FB7018
:1009300015E0FB681B78FC7818463B1D93E8060021
:100940002346FFF761FF03461A46FB681B789A426D
:1009500002D0FB681B7808E0FB680133FB60FB6892
:100960001B78002BE5D1FB681B7818461437BD4671
:1009700090BD00BF80B483B000AF03460A46FB7150
:100980001346BB71FB799AB2054B1A80BB799AB2B8
:10099000034B5A800C37BD465DF8047B704700BF9F
:1009A0008803002080B584B000AF0346FB7181232B
:1009B000FB73FB7B1846FFF741FDFB791846FFF7F9
:1009C0003DFD1037BD4680BD80B584B000AF034605
:1009D000FB71FB79002B05D0AF23FB73074B012282
:1009E0009A7104E0AE23FB73044B00229A71FB7BE7
:1009F0001846FFF723FD1037BD4680BD8803002051
:100A000080B485B000AFF8600B467A60FB72FB7A69
:100A10009B08DBB21846FB7A9B08DBB21A46FB68E0
:100A2000043253F82220FB7A03F00303DB0019465B
:100A3000F8238B40DB4302EA0301FB68021D43F805
:100A40002210FB685A6FFB7A5B00194603238B4028
:100A5000DB431A40FB685A67FB683A4A934203D06B
:100A6000FB68394A93420AD1FB681A6EFB7A01216E
:100A700001FA03F3DB431A40FB681A6642E07B6825
:100A80001B78DBB25BB2002B3CDA7B685A68FB7ADE
:100A90009A40FB685A60FB7ADB08DBB21846FB7AA7
:100AA000DB08DBB21A46FB68103253F82220FB7ACF
:100AB00003F007039B00194607238B40DB4302EA40
:100AC0000301FB6800F1100243F82210FB7ADB08F7
:100AD000DBB21846FB7ADB08DBB21A46FB68103241
:100AE00053F822207B681B7A1946FB7A03F0070330
:100AF0009B0001FA03F342EA0301FB6800F11002D4
:100B000043F82210FB7A9B08DBB21846FB7A9B085D
:100B1000DBB21A46FB68043253F822207B681B784C
:100B20001946FB7A03F00303DB0001FA03F342EA00
:100B30000301FB68021D43F822101437BD465DF81F
:100B4000047B7047008E0248008F024880B400AFDB
:100B5000034B1B681846BD465DF8047B704700BF19
:100B6000C0FF002080B400AF034BD3F8C430184658
:100B7000BD465DF8047B70470040005080B584B0EE
:100B800000AF7860FFF7A6FB0B4B1B680B4AA2FB7C
:100B900003239A0C7B6802FB03F37B600023FB605A
:100BA00003E000BFFB680133FB60FA687B689A4290
:100BB000F7D31037BD4680BDC0FF002083DE1B4346
:100BC00080B400AF034B5B681846BD465DF8047BFC
:100BD000704700BF7440005080B483B000AF7860AD
:100BE000034A7B68D3600C37BD465DF8047B7047D1
:100BF00074400050B0B584B002AF7860002000F0BF
:100C0000C5F800F077FA7B68DB79002B0AD000F09A
:100C1000AFFA00BF00F09AFA034683F00103DBB29B
:100C2000002BF7D17B685B7A184600F029F900BFEA
:100C3000FFF798FF0346002BFAD17B681B7A184612
:100C400000F032FA7B681B7C184600F037F97B68AD
:100C50005B7C184600F05AF97B689B7C184600F0D4
:100C600041F97B68DB7C184600F064F97B689B796E
:100C7000002B0AD000F0B4FA00BF00F0D9FA034606
:100C800083F00103DBB2002BF7D17B68DB78002B0C
:100C900009D17B689B7983F00103DBB2002B17D06D
:100CA00000F0EAFA14E000F0D7FA7B6899887B68D4
:100CB000DA787B685B781D467B681B781C467B680E
:100CC0009B780093084611462A46234600F0E4FA32
:100CD0007B68DB68B3F5803F03D14FF4803000F0D0
:100CE00055F8FFF7F7FA0837BD46B0BD80B485B0B8
:100CF00000AF78607B681B0FFB607B6823F070435C
:100D0000BB60FA6813465B0013449B001A46044B11
:100D10001344BA681A601437BD465DF8047B704707
:100D20001444005080B485B000AF78607B681B0F1E
:100D3000FB607B6823F07043BB60FA6813465B007E
:100D400013449B001A46084B13441A68BB681340AF
:100D5000002B14BF01230023DBB218461437BD4615
:100D60005DF8047B704700BF0C44005080B500AFB5
:100D7000FFF7ECFE0246044B5B6903F0010322FA25
:100D800003F3184680BD00BF0046005080B483B016
:100D900000AF78600649064BDB6823F480327B683D
:100DA0001343CB600C37BD465DF8047B704700BF32
:100DB0000046005080B483B000AF78600649064B0F
:100DC0009B6923F480327B6813438B610C37BD46EB
:100DD0005DF8047B704700BF0046005080B483B0CC
:100DE00000AF78600649064B5B6A23F440327B68AB
:100DF00013434B620C37BD465DF8047B704700BF60
:100E00000046005080B483B000AF0346FB80FB88EF
:100E1000002B08D10A4A0A4BDB6823F4807323F0C5
:100E20000103D36007E0064A054BDB6843F4807397
:100E300043F00103D3600C37BD465DF8047B704777
:100E40001047005080B483B000AF0346FB7100BF71
:100E5000094BD3F8C43003F00803002BF8D107493D
:100E6000064BDB6823F04002FB791343CB600C3761
:100E7000BD465DF8047B70470040005000430050C1
:100E800080B483B000AF0346FB7100BF094BD3F8B9
:100E9000C43003F00803002BF8D10749064BDB6888
:100EA00023F08002FB791343CB600C37BD465DF81D
:100EB000047B7047004000500043005080B483B072
:100EC00000AF78600649064BDB6823F0FF027B68C1
:100ED000013B1343CB600C37BD465DF8047B704784
:100EE0000046005080B483B000AF78600649064BDE
:100EF0001B6A23F001027B68013B13430B620C3732
:100F0000BD465DF8047B70470046005080B483B056
:100F100000AF78600649064B1B6923F001027B682D
:100F2000013B13430B610C37BD465DF8047B7047F2
:100F30000046005080B483B000AF78600649064B8D
:100F40005B6923F001027B68013B13434B610C3763
:100F5000BD465DF8047B70470046005080B483B006
:100F600000AF78600649064B9B6923F007027B6857
:100F7000013B13438B610C37BD465DF8047B704722
:100F80000046005080B483B000AF78600649064B3D
:100F9000DB6923F03F027B68013B1343CB610C37D5
:100FA000BD465DF8047B70470046005080B483B0B6
:100FB00000AF78600649064B5B6A23F0FF027B684E
:100FC000013B13434B620C37BD465DF8047B704711
:100FD0000046005080B400AF054A054B5B6923F41E
:100FE000803323F002035361BD465DF8047B7047F4
:100FF0001047005080B483B000AF78603960284A51
:10100000274B5B6943F00103536100BF244B1B690D
:1010100003F00103002BF9D0214A214B5B6943F017
:10102000100353611E493B68013B1A027B68013B78
:101030001B0613434B611A4A194B5B6943F040038B
:101040005361174A164B5B6923F010035361144A2E
:10105000134B5B6943F48023536100BF104B1B6942
:1010600003F00403002BF9D00D4A0D4B5B6923F00C
:101070000103536100BF0A4B1B6903F00103002BFE
:10108000F9D1074A064B5B6923F040035361054BD6
:101090000822DA600C37BD465DF8047B704700BF5C
:1010A000104700506041005080B582B000AF034649
:1010B000FB710F4A0E4B5B6843F480135360FB795E
:1010C000012B0ED10A4A0A4B5B6823F4801353604C
:1010D0006420FFF753FD064A054B5B6843F4002389
:1010E00053606420FFF74AFD0837BD4680BD00BF4E
:1010F0001047005080B400AF124B1B6803F001038F
:10110000002B09D10F4B01225A6000BF0D4B1B6809
:1011100003F00103002BF9D00B4B1B6803F40073A1
:10112000002B0AD0084B4FF400729A6000BF064BA8
:101130001B6803F40073002BF9D1BD465DF8047BF6
:10114000704700BF004200500044005080B400AF20
:10115000064B1B6803F00803002B0CBF0123002380
:10116000DBB21846BD465DF8047B70470043005073
:1011700080B500AF4FF40000FFF72EFD174A174B64
:10118000DB6923F03003D36100BFFFF719FD03468D
:1011900003F40003002BF8D04FF40030FFF71CFDE0
:1011A0000E4B08225A6000BFFFF70AFD034603F406
:1011B0000033002BF8D04FF40020FFF70DFD074A55
:1011C000064BDB6843F00803D36000BFFFF7F8FC71
:1011D000034603F40023002BF8D080BD00430050E9
:1011E000B0B500AF0F4A0F4B5B6823F480335360F8
:1011F0000D4D0D4B5B6823F4702424F0300401F096
:10120000B9FF0246094BA3FB02231B0D013B1B0444
:1012100023436B60034A034B5B6823F40033536042
:10122000B0BD00BF10470050004700506BCA5F6B55
:1012300080B400AF074B1B6803F46073B3F5607FA5
:101240000CBF01230023DBB21846BD465DF8047BCA
:10125000704700BF1047005080B400AF054A054BEF
:101260005B6823F4803323F002035360BD465DF8CE
:10127000047B70471047005080B400AF054A054B0F
:101280005B6843F4803343F002035360BD465DF86E
:10129000047B70471047005080B586B000AFBA603D
:1012A0007B600346FB810B467B73FB891846FFF787
:1012B000A9FD7B7B012B40F08B80FB89002B09D1A2
:1012C00001F058FF0246544BA3FB02239B0C9B05E5
:1012D0007B6102E04FF0C0637B617B697A6802FB4F
:1012E00003F2BB68B2FBF3F37B617B694B4AA2FB61
:1012F00003231B099B0D3B61494A494B5B6843F043
:101300000103536000BF464B1B6803F00103002B31
:10131000F9D0434A424B5B6843F0100353604049A5
:101320003F4B9A683F4B13407A68013A12021A43C6
:101330003B69013B1B041A43BB68013B1B0613437B
:101340008B60374A364B5B6843F040035360344A46
:10135000334B5B6823F010035360314A304B5B68BA
:1013600043F48023536000BF2D4B1B6803F004033C
:10137000002BF9D02A4A2A4B5B6823F00103536003
:1013800000BF274B1B6803F00103002BF9D17B69D9
:10139000254AA2FB03235B099B0D3B613A6A3B692B
:1013A0009A4202D2386900F045F87B695B081F4A0F
:1013B000A2FB03235B099B0D3B613A6A3B699A429E
:1013C00002D2386900F036F8386A00F033F81CE0D1
:1013D0001349134B9B6823F07F023B6A013B134385
:1013E0008B6000BF0E4B1B6803F01003002BF9D07D
:1013F0000B4A0B4B5B6843F00103536000BF084B83
:101400001B6803F00103002BF9D0094B0522DA60B9
:101410001837BD4680BD00BF83DE1B43ABAAAAAA16
:1014200010470050FF8080F089888888B7600BB62D
:101430006041005080B582B000AF78600B490B4B23
:101440009B6823F4FE027B68013B1B0413438B6003
:1014500000BF064B1B6803F02003002BF9D032209D
:10146000FFF78CFB0837BD4680BD00BF104700501A
:1014700080B483B000AF78600B46FB701346BB703E
:10148000FB789B08DBB21846FB789B08DBB21A4658
:101490007B68043253F82220FB7803F00303DB005F
:1014A0001946F8238B40DB4302EA03017B68021DE7
:1014B00043F82210FB789B08DBB21846FB789B08A8
:1014C000DBB21A467B68043253F82220BB78F978E5
:1014D00001F00301C9008B4042EA03017B68021D51
:1014E00043F822100C37BD465DF8047B704700BFFF
:1014F00080B483B000AF78607B689B6BDBB223F075
:101500007F03DBB218460C37BD465DF8047B70479D
:1015100080B483B000AF786039607B68DA6C3B6878
:101520001A437B68DA640C37BD465DF8047B70476C
:1015300080B584B000AFF860B9601346FB71F868FD
:1015400000F0A2F9FB68114A5A63BB68DB88F868AF
:10155000194600F01DF8FB79002B08D0BB681A680B
:10156000BB681B79F86811461A4600F03BF8FB6827
:101570004FF4A0629A63FB684FF0FF32DA64FB68B5
:1015800000221A641037BD4680BD00BF03033F0729
:1015900080B483B000AF78600B467B807B8803F417
:1015A000F843B3F5F04F0ED17B68DB6B1B0C1B04CB
:1015B0007A88D2B21A437B885B0003F47E431A43D5
:1015C0007B68DA6308E07B68DB6B1B0C1B047A88A2
:1015D00012021A437B68DA630C37BD465DF8047B60
:1015E000704700BF80B586B000AFF860B9601346A1
:1015F000FB71BB68204A934219D8FB68DB6B23F46C
:101600000032FB68DA63FB79002B08D0BB68F8680E
:1016100019460A2200F0F6F90346FB7527E0F86840
:10162000B9680A2200F07CF90346FB751FE0BB682D
:10163000124A934219D8FB68DB6B43F40032FB6813
:10164000DA63FB79002B08D0BB68F86819461922C9
:1016500000F0D8F90346FB7509E0F868B96819226B
:1016600000F05EF90346FB7501E00123FB75FB7D8D
:1016700018461837BD4680BDA0860100801A0600B6
:1016800080B584B000AF78600B467B8013467B70DA
:101690007B8843F480639BB2FB607B78012B03D192
:1016A000FB6843F00103FB607B68D3F8083103F06B
:1016B000E063002B10D100BF7868FFF719FF0346E5
:1016C000802BF9D078684FF40051FFF721FF7B6839
:1016D000FA68C3F8802003E07B68FA68C3F88021C9
:1016E0001037BD4680BD00BF80B582B000AF7860C6
:1016F0007B68D3F8083103F0E063002B11D100BF01
:101700007868FFF7F5FE0346802BF9D078684FF430
:101710000051FFF7FDFE7B684FF4C062C3F88020E4
:1017200004E07B684FF4C062C3F880210837BD46EF
:1017300080BD00BF80B582B000AF78600B46FB7003
:101740007B68D3F8083103F0E063002B10D100BFB1
:101750007868FFF7CDFE0346802BF9D078684FF408
:101760000051FFF7D5FEFA787B68C3F8802003E0CC
:10177000FA787B68C3F880210837BD4680BD00BF7A
:1017800080B582B000AF78607B68D3F8083103F091
:10179000E063002B11D100BF7868FFF7A9FE034674
:1017A000802BF9D078684FF40051FFF7B1FE7B68C9
:1017B0004FF40072C3F8802004E07B684FF400729D
:1017C000C3F880210837BD4680BD00BF80B582B018
:1017D00000AF78607B68D3F8083103F0E063002B3A
:1017E00011D100BF7868FFF783FE0346802BF9D044
:1017F00078684FF40051FFF78BFE7B684FF440721E
:10180000C3F8802004E07B684FF44072C3F8802165
:101810000837BD4680BD00BF80B485B000AF78609A
:101820007B68D3F80C3103F0E063002B03D17B68B5
:101830005B6DFB7303E07B68D3F81C31FB73FB7BB0
:1018400018461437BD465DF8047B704780B483B0FA
:1018500000AF786039607B681A6C3B6803F4FE3334
:10186000DB431A407B681A647B68DA6B3968054B86
:101870000B40DB431A407B68DA630C37BD465DF8EA
:10188000047B70470000FC4180B582B000AF7860F7
:101890007B681A4A934203D07B68194A934203D16A
:1018A000184800F0F1F916E07B68174A934203D01C
:1018B0007B68164A934203D1154800F0E5F90AE027
:1018C0007B68144A934203D07B68134A934202D147
:1018D000124800F0D9F97B680322DA6000BF7B6808
:1018E000DB6803F00103002BF9D07B681B6C23F04D
:1018F0000F027B681A640837BD4680BD00000340B4
:1019000000020340080003400000024800020248B1
:1019100008000248004002480042024808400248CD
:1019200080B58EB000AFF860B9607A60BB68632B99
:101930005AD97B68002B57D0FFF718FA02462F4B75
:10194000A3FB02235B093B62BB682C4AA2FB032377
:101950005B09BB604FF48063FB620123BB6240F212
:10196000FF337B624FF480633B6322E03B6A3A6B58
:1019700002FB03F2BB68796801FB03F3B2FBF3F3EC
:10198000FB61FB699B0ABB61FB69C3F309037B61D4
:10199000BB69B3F5806F09D87A697B6A9A4205D230
:1019A0007B697B62BB69BB623B6BFB623B6B013B50
:1019B0003B633B6B002BD9D1FB6A013B43F40042F4
:1019C000FB681A61FB685A690D4B13407A68013A4B
:1019D00092021A43BB6A013B1B041A43FB685A611B
:1019E000002387F8373002E0012387F8373097F873
:1019F000373018463837BD4680BD00BF1F85EB51D4
:101A0000EF8000FC80B58CB000AFF860B9607A6000
:101A1000FFF7ACF903463B62BB687A6802FB03F34D
:101A2000FB610123FB623A6AFB699A425FDD3A6A15
:101A3000FB6992FBF3F3BB6210E0FB6A0133FB62CC
:101A4000BB687A6802FB03F31A46FB6A03FB02F3E6
:101A5000FB613A6AFB6992FBF3F3BB62BB6A40F23B
:101A6000FE329342E9D83A6A7B68B96A01FB03F314
:101A7000F96A01FB03F3B2FBF3F3BB613A6ABB6A99
:101A80000133796801FB03F3F96A01FB03F3B2FB4D
:101A9000F3F37B61BA687B69D31A83EAE372A2EB42
:101AA000E372B968BB69CB1A002BB8BF5B429A429C
:101AB00002DABB6A0133BB62BB6AC3F58063BB62F7
:101AC000BB6A43F48042FB681A61FB685A690C4B9D
:101AD00013407A68013A92021A43FB6A013B1B04E5
:101AE0001A43FB685A61002387F8273002E001237C
:101AF00087F8273097F8273018463037BD4680BD25
:101B0000EF8000FC80B485B000AFF860B9603B6046
:101B10001346FB71FB68D3F8083123F0E062FB68E1
:101B2000C3F80821FB68D3F80821094B13403A6831
:101B30001102BA681143FA7912060A431A43FB6884
:101B4000C3F808211437BD465DF8047B704700BF19
:101B5000C0C0FFF880B485B000AFF860B9603B60EA
:101B60001346FB71FB68D3F80C3123F0E062FB688D
:101B7000C3F80C21FB68D3F80C210A4B13403A68D8
:101B80001102BA681143FA7912060A43134343F06B
:101B90008052FB68C3F80C211437BD465DF8047B06
:101BA000704700BFC0C0FFEF80B485B000AFF860E1
:101BB0000B467A60FB72FB68D3F80C3123F47C523D
:101BC0007B681B021A43FB68C3F80C211437BD461F
:101BD0005DF8047B704700BF80B485B000AFF8604B
:101BE0000B467A60FB72FB689A69FB7A072101FA5F
:101BF00003F3DB431A40FB7A796801FA03F31A43D3
:101C0000FB689A611437BD465DF8047B704700BFDE
:101C100080B485B000AFF8600B467A60FB72FB6859
:101C2000D3F80821FB7A072101FA03F3DB431A40BA
:101C3000FB7A796801FA03F31A43FB68C3F80821B9
:101C40001437BD465DF8047B704700BF80B485B093
:101C500000AFF8600B467A60FB72FB68D3F80C218A
:101C6000FB7A072101FA03F3DB431A40FB7A796818
:101C700001FA03F31A43FB68C3F80C211437BD467D
:101C80005DF8047B704700BF80B582B000AF78601C
:101C90007B68184A93420CD14FF40060FFF726F896
:101CA00000BF4FF40060FFF73DF80346002BF8D16A
:101CB0001CE07B68104A93420AD11048FFF716F8DF
:101CC00000BF0E48FFF72EF80346002BF9D10DE0B8
:101CD0007B680B4A934209D10A48FFF707F800BF17
:101CE0000848FFF71FF80346002BF9D10837BD4617
:101CF00080BD00BF080003400800024880000010BB
:101D0000084002480001001080B485B000AF786040
:101D100039603B78C3F30203DBB21A46BB78C3F3E6
:101D20000403DBB21B041343FB607B68FA68C3F84F
:101D3000F021FB78C3F30013DBB21A07FB78C3F37F
:101D40008103DBB29B061A43FB78C3F34013DBB27B
:101D50005B071343FB607B68D3F8F021FB681343F8
:101D600043F000427B68C3F8F0211437BD465DF8AC
:101D7000047B704780B483B000AF78607B68D3F891
:101D8000843043F080627B68C3F884200C37BD4602
:101D90005DF8047B704700BF80B483B000AF78600B
:101DA0007B68D3F8843023F080627B68C3F884209A
:101DB0000C37BD465DF8047B704700BF80B500AFAF
:101DC0000120FEF793FF80BD80B582B000AF786040
:101DD0003960FFF7F3FF3B685A697B681A603B681C
:101DE0005B6843F400427B68C3F880203B689A68D4
:101DF0007B68C3F8A0203B68DA687B68C3F8A4203E
:101E00003B681A697B68C3F880223B681A687B6864
:101E1000C3F8B8200837BD4680BD00BF80B485B088
:101E200000AFF860B9603B601346FB71FB79002B93
:101E300009D1BA6840F21F731340FA683968283133
:101E400042F8213007E0BA68054B1340FA68396858
:101E5000283142F821301437BD465DF8047B7047C5
:101E600000001F0780B485B000AF78607B68D3F8AE
:101E7000803043F000427B68C3F880200023FB736E
:101E800017E0FB7B0F4A52F82330BB60BB68D3F8E6
:101E9000803003F44033002B08D000E000BFBB6863
:101EA000D3F8803003F08053002BF7D1FB7B013354
:101EB000FB73FB7B032BE4D91437BD465DF8047B31
:101EC000704700BFB083000880B485B000AF786071
:101ED0000B46FB70FB78032B03D9FB78043BFB60BC
:101EE00001E0FB78FB607B68D3F8403123F00F0200
:101EF0007B68C3F840217B68D3F84021FB681A4314
:101F00007B68C3F840211437BD465DF8047B7047F9
:101F100080B582B000AF786039603B6878685968F6
:101F20000022002300F028F83B68786859680122F5
:101F3000002300F021F83B687868996800220123AB
:101F400000F01AF83B68786899680122012300F0D4
:101F500013F83B681A697B68C3F880203B68DA682D
:101F60007B68C3F8B8203B6878681968FFF7CCFE37
:101F70000837BD4680BD00BF80B48DB000AFF860AB
:101F8000B9603B601346FB71FB79002B13D108232A
:101F9000FB624FF4E0637B620023BB621F233B6262
:101FA0003B7AC3F30403DBB2FB617B7AC3F3020326
:101FB000DBB2FB7613E01823FB624FF0E0637B6239
:101FC0001023BB624FF4F8133B62BB7AC3F30403E4
:101FD000DBB2FB61FB7AC3F30203DBB2FB76FB6887
:101FE0003A68283253F822307B617B6ADB437A6996
:101FF00013407B61FA7EFB6A02FA03F37A691343AA
:102000007B613B6ADB437A6913407B61BB6AFA6997
:1020100002FA03F37A6913437B61FB683A6828325A
:10202000796943F822103437BD465DF8047B704768
:1020300080B485B000AF78600B46FB707B68D3F846
:102040008030FB60FB6823F00303FB60FB78FA68D9
:102050001343FB607B68FA68C3F880201437BD46E1
:102060005DF8047B704700BF80B586B000AF786034
:1020700039600023FB7509E0FB7D394A52F82330B3
:102080001846FFF789FEFB7D0133FB75FB7D032BB3
:10209000F2D900233B613B681B7803F00303DBB2FA
:1020A000002B02D04FF400633B610023FB7521E05D
:1020B000FB7D2B4A52F82330D3F88430FB60FB6859
:1020C00023F44073FB603B681B78C3F38103DBB2EE
:1020D0001B02FA681343FB60FA683B691343FB6019
:1020E000FB7D1F4A52F82330FA68C3F88420FB7D39
:1020F0000133FB75FB7D032BDAD93B685B6843F446
:10210000000343F400437A68C2F800323B689B68DE
:1021100043F001027B68C3F804223B681B7803F09C
:102120000303DBB2022B07D17B68D3F8043243F4FC
:1021300080327B68C3F804220023FB7509E0FB7D35
:10214000074A52F823301846FFF714FEFB7D01338F
:10215000FB75FB7D032BF2D91837BD4680BD00BF50
:10216000B083000880B489B000AFF860B9607A60CD
:102170007B681B7ABB61FB68D3F888307B61BB68E6
:10218000012202FA03F3DB437A6913407B61BB68E7
:10219000BA6902FA03F37A6913437B61FB687A69CF
:1021A000C3F888207B685B7A5BB2002B29DB0023B5
:1021B000FB61BB68012B0AD10823FB61FB68D3F8E4
:1021C000B03023F4F852FB68C3F8B0200CE0BB68D1
:1021D000002B09D10023FB61FB68D3F8B03023F05A
:1021E0001F02FB68C3F8B020FB68D3F8B0307A68F0
:1021F000527A51B2FA6901FA02F21A43FB68C3F843
:10220000B020FB68D3F8C8207B685B681A43FB6882
:10221000C3F8C8207B681968FB68BA68803243F845
:1022200022102437BD465DF8047B704780B584B02A
:1022300000AF7860144B1B68002B02D1124B134A7D
:102240001A60114B1B68FB607B68033323F00303A8
:102250007B600D4B1A687B6813440D4A934207D28A
:10226000094B1A687B681344074A1360FB6806E051
:1022700001F0F8FF02460C2313604FF0FF331846BD
:102280001037BD4680BD00BF70030020A0030020B2
:10229000C0FF002080B400AFBD465DF8047B7047EE
:1022A00080B483B000AF0346FB7197F90730002B71
:1022B0000CDB094997F907305B09FA7902F01F0234
:1022C000012000FA02F2603341F823200C37BD46AA
:1022D0005DF8047B704700BF00E100E080B483B08C
:1022E00000AF786039607B681A6C3B68DB431A404A
:1022F0007B681A640C37BD465DF8047B704700BFED
:1023000080B483B000AF78607B689B6BDBB223F056
:102310007F03DBB218460C37BD465DF8047B70477F
:1023200080B483B000AF786039607B68D3F808214F
:102330003B681A437B68C3F808210C37BD465DF83B
:10234000047B704780B483B000AF786039607B68ED
:10235000D3F808213B68DB431A407B68C3F80821A7
:102360000C37BD465DF8047B704700BF80B483B076
:1023700000AF78607B68D3F8143103F48053002BEE
:1023800014BF01230023DBB218460C37BD465DF8AD
:10239000047B704780B483B000AF78607B68D3F86B
:1023A000143103F40063002B14BF01230023DBB2BC
:1023B00018460C37BD465DF8047B704780B483B087
:1023C00000AF786039607B68D3F80C213B68DB4351
:1023D0001A407B68C3F80C210C37BD465DF8047BBE
:1023E000704700BF80B483B000AF78607B68D3F8DB
:1023F000143103F00803002B14BF01230023DBB2C8
:1024000018460C37BD465DF8047B704780B483B036
:1024100000AF78607B689B6C18460C37BD465DF852
:10242000047B704780B483B000AF786039607B680C
:10243000DA6C3B681A437B68DA640C37BD465DF89A
:10244000047B704780B584B000AFF860B9607A60F3
:10245000FB681A68BB68DBB2104619467A68FFF75A
:10246000A3FB1037BD4680BD80B582B000AF786059
:102470007B681B681846FFF779FF03461846083744
:10248000BD4680BD80B582B000AF78607B681B68B8
:102490001846FFF7A7FF034618460837BD4680BD1C
:1024A00080B582B000AF78607B681B681846FFF784
:1024B000B3F9034618460837BD4680BD80B582B0E3
:1024C00000AF78600B46FB707B681A68FB7810469B
:1024D0001946FFF72FF90837BD4680BD80B582B099
:1024E00000AF786039607B681B6818463968FFF771
:1024F000ADF90837BD4680BD80B582B000AF7860C9
:102500007B681B681846FFF73BF90837BD4680BD5E
:1025100080B582B000AF78607B681B681846FFF713
:1025200055F90837BD4680BD80B582B000AF7860F0
:102530007B681B6818461021FFF774FF7B681B68D7
:102540001846FFF7D1F80837BD4680BD80B485B086
:1025500000AF786039607A683B689A4202D27B6843
:10256000FB6001E03B68FB60FB6818461437BD4622
:102570005DF8047B704700BF80B584B000AF786021
:102580007B68002B06D07B685B685B6898470023FC
:10259000FB7301E00123FB73FB7B18461037BD463C
:1025A00080BD00BF80B584B000AF786039607B68C3
:1025B0001B681846FFF72AFFF860FA683B6813406B
:1025C00018461037BD4680BD80B582B000AF786038
:1025D00039607B681B6818463968FFF723FF0837A6
:1025E000BD4680BD80B584B000AF78607B689B68D5
:1025F000BB600023FB7378684FF4B171FFF7D2FF23
:102600000346002B11D07B681B6818464FF08041B1
:10261000FFF798FE7B681B6818464FF40051FFF7E0
:102620005DFE786800F096FA05E1BB689B69002BB7
:1026300040F082807B685B6893F82630002B5AD08C
:10264000BB68DA68BB689B689A422ED278684FF004
:102650008041FFF743FF7B681B6818464FF08041BD
:10266000FFF75EFE17E0BB68DA68BB689B689A42BA
:102670000FD2BB681A68BB68DB6813441B787868A4
:102680001946FFF71BFFBB68DB685A1CBB68DA60A2
:1026900001E000BFCFE07868FFF7E6FE034683F075
:1026A0000103DBB2002BDED1C5E07B681B68184656
:1026B0004FF08041FFF746FE7B685B6893F8283057
:1026C0005BB21846FFF7ECFD00BF7B681B6818463D
:1026D000FFF760FE034683F00103DBB2002BF4D169
:1026E000BB6893F82830DBB2002B00F0A480786838
:1026F00000F0A4F89FE0BB68DA68BB689B689A4268
:102700000FD2BB681A68BB68DB6813441B78786813
:102710001946FFF7D3FEBB68DB685A1CBB68DA605A
:1027200089E0BB6893F82830DBB2002B00F083808F
:10273000786800F083F87EE07B685B6893F8263069
:10274000002B54D07B685B6893F82730002B15D0A2
:102750007B685B6893F826301A46012303FA02F27D
:102760007B685B6893F82730194601238B4010463D
:102770001946FFF7EBFE0346FB7301E00223FB73F0
:102780007B681B6818464FF08041FFF7DBFD23E0B4
:10279000BB68DA68BB689B689A421CD2BB68DB687E
:1027A0005A1CBB689B689A4207D1BB681B6A012B05
:1027B00003D17868FFF7ACFE02E07868FFF79CFE73
:1027C000BB68DB685A1CBB68DA60BB68DA68FB7BF5
:1027D0009A4201D30AE009E07868FFF745FE034614
:1027E00083F00103DBB2002BD2D117E016E0BB6807
:1027F000DB685A1CBB689B689A4207D1BB681B6A9E
:10280000012B03D17868FFF783FE02E07868FFF7B9
:1028100073FEBB68DB685A1CBB68DA607B689B6828
:10282000DA687B689B689B689A4204D178684FF0AD
:102830008041FFF753FE1037BD4680BD80B584B0A0
:1028400000AF78607B689B68FB6078684FF08041E0
:10285000FFF744FEFB68DB69012B06D1FB68002211
:1028600083F828207868FFF75FFE00BF7B681B684D
:102870001846FFF745FD0346802BF7D0FB68002282
:1028800083F826207B685B681B69002B03D07B687C
:102890005B681B6998471037BD4680BD90B585B011
:1028A00000AF78607B689B68BB600023FB73BB68EC
:1028B00093F82730DBB2002B00F011817B685B6856
:1028C00093F82730002B00F0C78020E0BB685A68DF
:1028D000BB685B69D4187868FFF7E2FD0346237094
:1028E000BB685B695A1CBB685A61BB685A69BB68A4
:1028F0001B699A420BD1BB68002283F827207B68B2
:102900001B6818464FF0C041FFF758FD08E0786893
:10291000FFF7B8FD034683F00103DBB2002BD5D1EE
:10292000BB685A69BB681B699A4277D2BB681A694F
:10293000BB685B69D31A7868194600F04FF97B6869
:102940005B6893F82630002B15D07B685B6893F8A2
:1029500026301A46012303FA02F27B685B6893F87B
:102960002730194601238B4010461946FFF7EEFD2C
:102970000346BB7301E00223BB737B685B6893F87B
:102980002630002B33D027E0BB68DA68BB689B6831
:102990009A4220D2BB68DB685A1CBB689B689A428B
:1029A00007D1BB681B6A012B03D17868FFF7B0FD24
:1029B00002E07868FFF7A0FDBB68DB685A1CBB68C3
:1029C000DA60FB7B0133FB73FA7BBB7B9A4203D358
:1029D0000023FB730AE009E07868FFF745FD034632
:1029E00083F00103DBB2002BCED117E016E0BB6809
:1029F000DB685A1CBB689B689A4207D1BB681B6A9C
:102A0000012B03D17868FFF783FD02E07868FFF7B8
:102A100073FDBB68DB685A1CBB68DA60BB685A6927
:102A2000BB681B699A425AD17B681B6818464FF0F5
:102A3000C041FFF7C3FC7B681B6818464FF4404158
:102A4000FFF74CFCBB6893F82830DBB2002B46D074
:102A5000786800F047F842E0BB685A68BB685B6979
:102A6000D4187868FFF71CFD03462370BB685B69C8
:102A70005A1CBB685A61BB685A69BB681B699A4299
:102A80001DD2BB68DA68BB689B689A4227D2BB68D4
:102A9000DA68BB689B68013B9A4207D1BB681B6A36
:102AA000012B03D17868FFF733FD02E07868FFF768
:102AB00023FDBB68DB685A1CBB68DA600FE07B68EB
:102AC0001B6818464FF44041FFF708FCBB6893F8B9
:102AD0002830DBB2002B02D0786800F003F81437FE
:102AE000BD4690BD80B584B000AF78607B689B68C0
:102AF000FB60FB68DB69012B0FD100BF7B681B68A3
:102B00001846FFF7FDFB0346802BF7D0FB68002239
:102B100083F828207868FFF707FD00BF7B681B68F3
:102B20001846FFF7EDFB0346802BF7D0FB68002229
:102B300083F82720FB68002283F826207B685B68E7
:102B40005B69002B03D07B685B685B699847103733
:102B5000BD4680BD80B584B000AF78607B681B68DF
:102B60001846FFF753FCF8607B685B689B69002B95
:102B70000CD0FB6803F02003002B07D078682021DD
:102B8000FFF722FD7B685B689B6998477B685B6801
:102B9000DB69002B0CD0FB6803F04003002B07D04F
:102BA00078684021FFF710FD7B685B68DB69984718
:102BB0007B685B681B6A002B0DD0FB6803F4817394
:102BC000002B08D078684FF48071FFF7FDFC7B681C
:102BD0005B681B6A98471037BD4680BD80B586B0DC
:102BE00000AF786039607B685B6893F827301A46DD
:102BF00001239340BB757B685B6893F82630002BFC
:102C000008D07B685B6893F826301A46012393400E
:102C1000FB7501E00123FB75FA7DBB7D104619466B
:102C2000FFF794FC386138683969FFF78FFC034679
:102C3000FB737B685B6893F827301A46FB7B013B8C
:102C4000786811461A46FFF7FDFB1837BD4680BD70
:102C500080B400AF044BDB6803F4E0631B0A184642
:102C6000BD465DF8047B704700ED00E080B483B0A2
:102C700000AF0346FB7197F90730002B0BDB0849C7
:102C800097F907305B09FA7902F01F02012000FA78
:102C900002F241F823200C37BD465DF8047B7047F3
:102CA00000E100E080B483B000AF03463960FB71FF
:102CB00097F90730002B0ADB0D4997F907303A687E
:102CC000D2B29200D2B20B4483F800230AE0094941
:102CD000FB7903F00F03043B3A68D2B29200D2B200
:102CE0000B441A760C37BD465DF8047B704700BF75
:102CF00000E100E000ED00E080B489B000AFF860D2
:102D0000B9607A60FB6803F00703FB61FB69C3F1FC
:102D10000703062B28BF0623BB61FB690633062B7E
:102D200002D9FB69013B00E000237B61BB69012202
:102D300002FA03F35A1EBB681A407B699A407B690A
:102D4000012101FA03F3591E7B680B401343184617
:102D50002437BD465DF8047B704700BF80B483B064
:102D600000AF78600B46FB701346BB70F878FB78B9
:102D70007A6806339B0013445B6823F00702BB7834
:102D80001A437968831D9B000B445A600C37BD467B
:102D90005DF8047B704700BF80B483B000AF7860FB
:102DA00039607B68D3F808213B681A437B68C3F815
:102DB00008210C37BD465DF8047B704780B483B0B2
:102DC00000AF786039607B68D3F80C213B681A4308
:102DD0007B68C3F80C210C37BD465DF8047B704757
:102DE00080B483B000AF78600B46FB707B681B6CCF
:102DF00023F00F02FB781A437B681A640C37BD4638
:102E00005DF8047B704700BF80B582B000AF78608A
:102E10003960786839680122FEF78AFB0837BD46B9
:102E200080BD00BF80B582B000AF786078680421B3
:102E3000FFF7D6FF0837BD4680BD00BF80B500AFA5
:102E4000054805210022FEF713FB03480B21002251
:102E5000FEF70EFB80BD00BF0080024880B500AFCA
:102E6000D023064805211A46FEF702FBD02303486B
:102E70000B211A46FEF7FCFA80BD00BF0080024815
:102E800080B582B000AF00237B604FF0C0433B6051
:102E900032483349FFF7B8FF304800210122FFF7DD
:102EA0005DFF2E4801210022FFF758FF2B4810211B
:102EB00004220123FEF726FE284810210122FEF7F6
:102EC000A7FE26487968FFF767FF244800210422FF
:102ED0000F23FEF73FFE214810210022FEF7B6FE29
:102EE0001E4813210022FEF7B1FE1C483968FFF787
:102EF00065FF1A4810210222FEF76EFE1748FFF701
:102F000091FF18480521184AFDF77AFD15480B2155
:102F1000164AFDF775FDFFF79BFE034618463F2155
:102F20000022FFF7E9FE03465B201946FFF7BAFED1
:102F30005B20FFF79BFEFFF78BFE034618463F2101
:102F40000022FFF7D9FE03465A201946FFF7AAFED2
:102F50005A20FFF78BFE0837BD4680BD00000248AF
:102F6000D883000800800248C0830008CC83000892
:102F700080B500AF0148FFF735FB80BD340000206D
:102F800080B500AF0148FFF789FC80BD3400002008
:102F900080B483B000AF786039607B68D3F880205C
:102FA0003B681033194601238B401A437B68C3F8F2
:102FB00080200C37BD465DF8047B704780B584B037
:102FC00000AF78607B681B7E022B49D17B685A6911
:102FD0007B681B6910461946FEF7F6FE0023FB606E
:102FE0002FE07B68FA6853F8223019687B68FA682A
:102FF00053F822305B6808461946FEF789FF7B6864
:10300000FA6853F822301B6818460321FFF710F8BE
:103010007B68FA6853F822301B7A83F00103DBB235
:10302000002B05D07B685B691846F968FFF7B0FF95
:103030007B68FA6853F8223000225A72FB68013329
:10304000FB60FB68032BCCD97B685B7E002B04D034
:103050007B685B691846FEF705FF7B6800221A76DD
:103060007B681B7E18461037BD4680BD80B485B096
:1030700000AF78607B6803F00703FB600C4BDB68F4
:10308000BB60BA684FF6FF031340BB60FB681A02CF
:10309000BB68134343F0BF6343F40033BB60044A8F
:1030A000BB68D3601437BD465DF8047B704700BF32
:1030B00000ED00E080B582B000AF0120FFF7D6FF41
:1030C00072B6214B214A9A60BFF34F8F62B61E4AF7
:1030D0001D4BD3F8883043F47003C2F888301C4B82
:1030E00003F5805314331B687B607B6823F00F0368
:1030F0007B607B6843F003037B60154B03F58053D3
:1031000014337A681A60104A0F4B5B6923F010037E
:1031100053610D4A0C4B5B6923F0080353610A4A63
:10312000094B5B6A23F480335362074A064B5B6AA0
:1031300023F400335362044A034B5B6A23F4802375
:1031400053620837BD4680BD00ED00E00000000876
:103150000010005880B485B000AF78600023FB7386
:103160007B6801221A70FB7B18461437BD465DF858
:10317000047B704780B400AF024B1846BD465DF833
:10318000047B7047001BB700B0B586B000AF134B8F
:103190003C1D1D460FCD0FC42B6823603B1D1846F8
:1031A000FDF728FD0020FDF74DFE0020FDF702FE93
:1031B0000420FDF7D3FEFDF70DFF01202021FDF7D0
:1031C00019FF0020FDF70AFE0120FDF7EFFE0120A8
:1031D000FDF7D8FE1837BD46B0BD00BF74840008A7
:1031E00080B400AF044BDB6803F4E0631B0A1846AD
:1031F000BD465DF8047B704700ED00E080B483B00D
:1032000000AF0346FB7197F90730002B0BDB084931
:1032100097F907305B09FA7902F01F02012000FAE2
:1032200002F241F823200C37BD465DF8047B70475D
:1032300000E100E080B483B000AF03463960FB7169
:1032400097F90730002B0ADB0D4997F907303A68E8
:10325000D2B29200D2B20B4483F800230AE00949AB
:10326000FB7903F00F03043B3A68D2B29200D2B26A
:103270000B441A760C37BD465DF8047B704700BFDF
:1032800000E100E000ED00E080B489B000AFF8603C
:10329000B9607A60FB6803F00703FB61FB69C3F167
:1032A0000703062B28BF0623BB61FB690633062BE9
:1032B00002D9FB69013B00E000237B61BB6901226D
:1032C00002FA03F35A1EBB681A407B699A407B6975
:1032D000012101FA03F3591E7B680B401343184682
:1032E0002437BD465DF8047B704700BF80B483B0CF
:1032F00000AF78607B68D3F8043243F400727B68D7
:10330000C3F804220C37BD465DF8047B704700BF4C
:1033100080B485B000AFF860B9607A60FB68BA68C5
:10332000603253F822207B68012101FA03F342EA5C
:103330000301FB68BA68603243F822101437BD46B7
:103340005DF8047B704700BF80B485B000AFF860C3
:10335000B9607A607B681968FB68BA68A03243F884
:1033600022101437BD465DF8047B704780B483B0EB
:1033700000AF786039607B683A68C03253F8223019
:103380009BB218460C37BD465DF8047B704700BF02
:1033900090B585B000AF78607B681B7E022B40F053
:1033A00099807B68DB681846FFF708FE0346BB730D
:1033B0007B68DB685A697B689B6810461968002245
:1033C0000023FEF72BFD7B68DB685A697B685B682E
:1033D00010461946FEF748FE0023FB732EE07B687B
:1033E0001B68FA7B53F82230BB60BB689A68BB68E5
:1033F0005B7B1946BB681B6810461A46FEF7B2FE97
:10340000BB689A68BB681B689B78C3F30303DBB295
:103410001946BB685B6810461A46FFF795FF7B6844
:10342000DB685A69BB681B7B1946BB685B7B10462F
:103430001A46FFF76DFFFB7B0133FB73FB7B002B11
:10344000CDD07B685B681B7A03F00803DBB2002BEE
:103450002CD07B681B69002B28D07B681B691B68FC
:10346000DCB2FFF7BDFE01467B681B695A687B68CA
:103470001B699B68084611461A46FFF705FF02467E
:1034800063B218461146FFF7D5FE7B68DB685A69C0
:103490007B685B7E10461946FEF716FD7B681B694C
:1034A0001B68DBB25BB21846FFF7A8FE7B685B695E
:1034B000002B02D07B685B6998477B689B7E002B62
:1034C00005D07B68DB685B691846FFF70FFF7B68F8
:1034D000BA7B1A767B681B7E18461437BD4690BDB2
:1034E00080B582B000AF78607B68DB685B691846A6
:1034F000FFF7FCFE0837BD4680BD00BF80B584B035
:1035000000AF78607B689A687B681B689B78C3F320
:103510000303DBB210461946FFF728FF0346FB8181
:10352000FB8918461037BD4680BD00BF80B582B00C
:1035300000AF0023FB710D48FFF70CFE0346FB7143
:10354000FB79002B04D10A48FFF722FF0346FB71E9
:10355000FB79002B04D10748FFF70EF80346FB71F7
:10356000FB7918460837BD4680BD00BF74030020B4
:10357000AC0000203400002080B483B000AF0346CC
:103580003960FB7197F90730002B0ADB0D4997F979
:1035900007303A68D2B29200D2B20B4483F80023CB
:1035A0000AE00949FB7903F00F03043B3A68D2B201
:1035B0009200D2B20B441A760C37BD465DF8047BFC
:1035C000704700BF00E100E000ED00E080B582B090
:1035D00000AF78607B68013BB3F1807F01D30123AA
:1035E0000FE00A4A7B68013B53604FF0FF303F21F8
:1035F000FFF7C2FF054B00229A60044B07221A60B6
:10360000002318460837BD4680BD00BF10E000E02B
:1036100080B500AF0648FFF771FF03461A46054B19
:103620001A800548FFF75CFF024B1B88184680BDD7
:103630009800002098030020AC00002080B400AF68
:10364000044B1B680133034A1360BD465DF8047BDD
:10365000704700BF7C03002080B485B000AF786065
:10366000084B1B68FB6000E000BFFA687B681A44E7
:10367000044B1B689A42F7D81437BD465DF8047BAB
:10368000704700BF7C03002080B582B000AF786037
:103690000020FDF703F802200121FDF76BF9064B2E
:1036A000786893E806000123FDF73AF9FDF718F86A
:1036B0000837BD4680BD00BF0000002080B58EB039
:1036C00004AFF860B9607A603B60D7ED037AF5EE3D
:1036D000C07AF1EE10FA01D5264B00E0264B7B6252
:1036E000D7ED037AF5EEC07AF1EE10FA04D5D7EDF6
:1036F000037AF1EE677A01E0D7ED037AC7ED087A35
:10370000D7ED087AFDEEE77A17EE903AFB61FB6998
:1037100007EE903AF8EEE77A97ED087A77EE677A57
:10372000C7ED067AD7ED067AB2EE047A67EE877AAD
:1037300017EE900A00F030FA02460B461046194682
:1037400000F096F802460B461046194600F012FDAE
:1037500003467B61FB6900937B6901937B6802935D
:1037600038680649BA687B6A01F034FC2837BD46E0
:1037700080BD00BFA4840008A8840008AC840008B1
:1037800080B59EB000AFFFF7D1FE314B1B68314AC8
:10379000A2FB03239B091846FFF718FF2E4B1B685B
:1037A00018462E49FCF704FF2D4B1B8807EE903A74
:1037B000F8EE677AC7ED1C7A386F00F0EDF9024633
:1037C0000B46104619461EA3D3E9002300F038FA31
:1037D00002460B461046194600F0F4FC0346FB6611
:1037E000D7ED1B7AB2EE047A67EE877AC7ED1A7AC4
:1037F000D7ED1A7A9FED1B7A67EE877AC7ED1D7AAF
:10380000F86E00F0C9F902460B46104619460EA3A1
:10381000D3E9002300F090FC0346002B05D04FF0C5
:103820000003BB664FF000037B673B1D786F0E49BA
:103830000E4AFFF743FF3B1D1846FFF725FFB3E78E
:103840006666666666664A3FB81E85EB51B89E3F5F
:10385000C0FF0020D34D621034000020593600080C
:103860009803002000006643BC840008C48400085C
:10387000F8B5C1F30A56A6F2FF34132C0B460D46D9
:103880000DDC002C01F000411ADB104B234125EA2E
:103890000305002245EA010310461946F8BD332C02
:1038A000024603DDB4F5806F0DD0F8BDA6F21346D5
:1038B0004FF0FF31F14020EA010210462946F8BDE1
:1038C00000221046F8BD00F009F8F8BDFFFF0F0018
:1038D00081F0004102E000BF83F0004330B54FEAC1
:1038E00041044FEA430594EA050F08BF90EA020F2E
:1038F0001FBF54EA000C55EA020C7FEA645C7FEAC1
:10390000655C00F0E2804FEA5454D4EB5555B8BFE3
:103910006D420CDD2C4480EA020281EA030382EA54
:10392000000083EA010180EA020281EA0303362DE6
:1039300088BF30BD11F0004F4FEA01314FF4801CB9
:103940004CEA113102D0404261EB410113F0004FCB
:103950004FEA03334CEA133302D0524263EB430382
:1039600094EA050F00F0A780A4F10104D5F1200E20
:103970000DDB02FA0EFC22FA05F2801841F100017B
:1039800003FA0EF2801843FA05F359410EE0A5F14F
:1039900020050EF1200E012A03FA0EFC28BF4CF080
:1039A000020C43FA05F3C01851EBE37101F0004536
:1039B00007D54FF0000EDCF1000C7EEB00006EEB43
:1039C0000101B1F5801F1BD3B1F5001F0CD34908CD
:1039D0005FEA30004FEA3C0C04F101044FEA445224
:1039E00012F5800F80F09A80BCF1004F08BF5FEAAB
:1039F000500C50F1000041EB045141EA050130BD8B
:103A00005FEA4C0C404141EB010111F4801FA4F12D
:103A10000104E9D191F0000F04BF01460020B1FA82
:103A200081F308BF2033A3F10B03B3F120020CDABA
:103A30000C3208DD02F1140CC2F10C0201FA0CF098
:103A400021FA02F10CE002F11402D8BFC2F1200CFD
:103A500001FA02F120FA0CFCDCBF41EA0C019040B3
:103A6000E41AA2BF01EB0451294330BD6FEA0404FC
:103A70001F3C1CDA0C340EDC04F11404C4F12002E7
:103A800020FA04F001FA02F340EA030021FA04F3F9
:103A900045EA030130BDC4F10C04C4F1200220FA50
:103AA00002F001FA04F340EA0300294630BD21FA8E
:103AB00004F0294630BD94F0000F83F4801306BF54
:103AC00081F480110134013D4EE77FEA645C18BF48
:103AD0007FEA655C29D094EA050F08BF90EA020FDF
:103AE00005D054EA000C04BF1946104630BD91EAD7
:103AF000030F1EBF0021002030BD5FEA545C05D1DA
:103B00004000494128BF41F0004130BD14F5800418
:103B10003CBF01F5801130BD01F0004545F0FE418C
:103B200041F470014FF0000030BD7FEA645C1ABFC1
:103B3000194610467FEA655C1CBF0B46024650EAF8
:103B4000013406BF52EA033591EA030F41F4002124
:103B500030BD00BF90F0000F04BF0021704730B5AA
:103B60004FF4806404F132044FF000054FF000017F
:103B700050E700BF90F0000F04BF0021704730B540
:103B80004FF4806404F1320410F0004548BF404215
:103B90004FF000013EE700BF42004FEAE2014FEA6A
:103BA00031014FEA02701FBF12F07F4393F07F4F45
:103BB00081F06051704792F0000F14BF93F07F4F77
:103BC000704730B54FF4607401F0004521F00041BA
:103BD00020E700BF50EA010208BF704730B54FF040
:103BE00000050AE050EA010208BF704730B511F045
:103BF000004502D5404261EB41014FF4806404F17D
:103C000032045FEA915C3FF4DCAE4FF003025FEAFE
:103C1000DC0C18BF03325FEADC0C18BF033202EB86
:103C2000DC02C2F1200300FA03FC20FA02F001FAE0
:103C300003FE40EA0E0021FA02F11444C1E600BF7F
:103C400070B54FF0FF0C4CF4E06C1CEA11541DBF32
:103C50001CEA135594EA0C0F95EA0C0F00F0DEF8FD
:103C60002C4481EA030621EA4C5123EA4C5350EAE2
:103C7000013518BF52EA033541F4801143F4801333
:103C800038D0A0FB02CE4FF00005E1FB02E506F0C4
:103C90000042E0FB03E54FF00006E1FB03569CF019
:103CA000000F18BF4EF0010EA4F1FF04B6F5007F1F
:103CB00064F5407404D25FEA4E0E6D4146EB060691
:103CC00042EAC62141EA55514FEAC52040EA5E501A
:103CD0004FEACE2EB4F1FD0C88BFBCF5E06F1ED8C4
:103CE000BEF1004F08BF5FEA500E50F1000041EBFB
:103CF000045170BD06F0004646EA010140EA0200A8
:103D000081EA0301B4EB5C04C2BFD4EB0C0541EAC9
:103D1000045170BD41F480114FF0000E013C00F3DE
:103D2000AB8014F1360FDEBF002001F0004170BD02
:103D3000C4F10004203C35DA0C341BDC04F114041B
:103D4000C4F1200500FA05F320FA04F001FA05F2A7
:103D500040EA020001F0004221F0004110EBD37074
:103D600021FA04F642EB06015EEA430E08BF20EAA0
:103D7000D37070BDC4F10C04C4F1200500FA04F343
:103D800020FA05F001FA04F240EA020001F00041D5
:103D900010EBD37041F100015EEA430E08BF20EA48
:103DA000D37070BDC4F1200500FA05F24EEA020E90
:103DB00020FA04F301FA05F243EA020321FA04F0BF
:103DC00001F0004121FA04F220EA020000EBD37076
:103DD0005EEA430E08BF20EAD37070BD94F0000F76
:103DE0000FD101F00046400041EB010111F4801FAA
:103DF00008BF013CF7D041EA060195F0000F18BF5B
:103E0000704703F00046520043EB030313F4801F96
:103E100008BF013DF7D043EA0603704794EA0C0F50
:103E20000CEA135518BF95EA0C0F0CD050EA410666
:103E300018BF52EA4306D1D181EA030101F00041E3
:103E40004FF0000070BD50EA410606BF104619460B
:103E500052EA430619D094EA0C0F02D150EA013617
:103E600013D195EA0C0F05D152EA03361CBF104658
:103E700019460AD181EA030101F0004141F0FE41F7
:103E800041F470014FF0000070BD41F0FE4141F47B
:103E9000780170BD70B54FF0FF0C4CF4E06C1CEA7B
:103EA00011541DBF1CEA135594EA0C0F95EA0C0F30
:103EB00000F0A7F8A4EB050481EA030E52EA0335EB
:103EC0004FEA013100F088804FEA03334FF080550C
:103ED00045EA131343EA12634FEA022245EA111539
:103EE00045EA10654FEA00260EF000419D4208BFEA
:103EF000964244F1FD0404F5407402D25B084FEA97
:103F00003202B61A65EB03055B084FEA32024FF442
:103F100080104FF4002CB6EB020E75EB030E22BF9F
:103F2000B61A754640EA0C005B084FEA3202B6EB5F
:103F3000020E75EB030E22BFB61A754640EA5C000E
:103F40005B084FEA3202B6EB020E75EB030E22BF9E
:103F5000B61A754640EA9C005B084FEA3202B6EB9F
:103F6000020E75EB030E22BFB61A754640EADC005E
:103F700055EA060E18D04FEA051545EA16754FEAC0
:103F800006164FEAC30343EA52734FEAC2025FEADE
:103F90001C1CC0D111F4801F0BD141EA00014FF06D
:103FA00000004FF0004CB6E711F4801F04BF01433E
:103FB0000020B4F1FD0C88BFBCF5E06F3FF6AFAE5A
:103FC000B5EB030C04BFB6EB020C5FEA500C50F1EA
:103FD000000041EB045170BD0EF0004E4EEA11316D
:103FE00014EB5C04C2BFD4EB0C0541EA045170BD74
:103FF00041F480114FF0000E013C90E645EA060EB8
:104000008DE60CEA135594EA0C0F08BF95EA0C0FE5
:104010003FF43BAF94EA0C0F0AD150EA01347FF42D
:1040200034AF95EA0C0F7FF425AF104619462CE704
:1040300095EA0C0F06D152EA03353FF4FDAE104667
:10404000194622E750EA410618BF52EA43067FF4B8
:10405000C5AE50EA41047FF40DAF52EA43057FF448
:10406000EBAE12E74FF0FF3C06E000BF4FF0010C53
:1040700002E000BF4FF0010C4DF804CD4FEA410CB7
:104080007FEA6C5C4FEA430C18BF7FEA6C5C1BD084
:1040900001B050EA410C0CBF52EA430C91EA030F05
:1040A00002BF90EA020F0020704710F1000F91EA62
:1040B000030F58BF994208BF90422CBFD8176FEA30
:1040C000E37040F0010070474FEA410C7FEA6C5CFE
:1040D00002D150EA013C07D14FEA430C7FEA6C5C05
:1040E000D6D152EA033CD3D05DF8040B704700BF31
:1040F0008446104662468C461946634600E000BF7F
:1041000001B5FFF7B7FF002848BF10F1000F01BD50
:104110004DF808EDFFF7F4FF0CBF012000205DF81B
:1041200008FB00BF4DF808EDFFF7EAFF34BF0120A0
:1041300000205DF808FB00BF4DF808EDFFF7E0FF39
:1041400094BF012000205DF808FB00BF4DF808ED8A
:10415000FFF7CEFF94BF012000205DF808FB00BFF1
:104160004DF808EDFFF7C4FF34BF012000205DF8D3
:1041700008FB00BF4FEA410212F5001215D211D51B
:104180006FF47873B3EB625212D94FEAC12343F054
:10419000004343EA505311F0004F23FA02F018BFD6
:1041A000404270474FF00000704750EA013005D19F
:1041B00011F0004008BF6FF0004070474FF0000062
:1041C000704700BF4FEA4102B2F1E04324BFB3F5AC
:1041D000001CDCF1FE5C0DD901F0004C4FEAC0027E
:1041E0004CEA5070B2F1004F40EB830008BF20F062
:1041F0000100704711F0804F21D113F13872BCBF1C
:1042000001F00040704741F480114FEA5252C2F170
:104210001802C2F1200C10FA0CF320FA02F018BFB9
:1042200040F001004FEAC1234FEAD32303FA0CFC0C
:1042300040EA0C0023FA02F34FEA4303CCE77FEA9B
:10424000625307D150EA01331EBF4FF0FE4040F4E5
:104250004000704701F0004040F0FE4040F4000094
:10426000704700BF014B1868704700BF280100204D
:1042700070B50E4B0E4CE41AA41000251E46A54244
:1042800004D056F8253098470135F8E7FEF702F8D4
:10429000084C094BE41AA41000251E46A54204D080
:1042A00056F8253098470135F8E770BD68010020C1
:1042B00068010020680100206801002010B5431E3D
:1042C0000A44914204D011F8014B03F8014FF8E77A
:1042D00010BD02440346934202D003F8011BFAE7E3
:1042E00070472DE9F04788B0002B149F1299109E5B
:1042F000DDF84CA01D46B8BF05F1004327F02007AC
:10430000B6BF1D4600232D231446B8BF1446462FC2
:104310000B7003D0452F03D1013601E0032300E0E9
:1043200002238DE8480406AB039307AB04932246AF
:104330002B4601F0D9FD472F804602D1119BDB07A8
:1043400026D5462F08EB060911D198F80030302BFE
:104350000AD12046294600220023FFF7D9FE18B9CA
:10436000C6F10106CAF80060DAF800309944204628
:10437000294600220023FFF7CBFE08B1CDF81C90A0
:10438000079B4B4504D25A1C079230221A70F7E75C
:10439000079B159AC8EB03034046136008B0BDE8BD
:1043A000F08773B503460029B8BF494203F8022BD2
:1043B000B4BF2D222B220929427019DD0DF107040B
:1043C00026460A2291FBF2F502FB15113031092D28
:1043D00004F8011D2946F4DC3031651E04F8011C87
:1043E000B5421A460AD215F8012B03F8012BF7E75C
:1043F00030241A46214402F8024B5970101A02B0B8
:1044000070BD00002DE9F04F91B08B4615461E4659
:104410001A9F044602F038FED0F800A0504600F083
:10442000FDFD00230E933B680990073323F007033B
:10443000D3E9000103F108029BF818803A60CBE948
:10444000120100F099FD0128DBE9120119D10022C7
:104450000023FFF767FE10B12D238BF84330A04BEC
:10446000A04FB8F1470F88BF1F460323CBF8103089
:10447000DBF8003023F00403CBF800304FF00009E4
:10448000A1E000F079FDDBF8003048B9964A974F7B
:10449000B8F1470F88BF17460322CBF81020E9E791
:1044A000DBF804209BED127B571C8DED0A7B01D1BC
:1044B000062209E0B8F1670F02D0B8F1470F05D125
:1044C000002A40F0C7810122CBF80420DBF8042049
:1044D000CDF8108043F480638DE80C00CBF80030F9
:1044E0000DF1330302930DAB03930EAB0593002341
:1044F00006932046DDE90A23FFF7F3FE08F0DF0309
:10450000472B07460AD10D9BD81C03DBDBF80420A0
:10451000934237DDA8F102085FFA88F8B8F1650F19
:104520000D9915D8013942460BF150000D91FFF756
:1045300038FF0E9A8318012A8146CBF8103003DC2D
:10454000DBF80020D10738D50133CBF8103034E048
:10455000B8F1660F18D10029DBF8043009DDCBF87B
:1045600010101BB9DBF80020D20721D501330B4412
:104570001CE01BB9DBF80020D00701D5023315E0A1
:10458000012313E04FF067080D9B0E9A934207DB5F
:10459000DBF80020CBF81030D10709D5013305E056
:1045A000002BD4BFC3F1020301231344CBF8103016
:1045B0000D9BCBF858304FF000099DF8333013B104
:1045C0002D238BF843300096204659460FAA2B46E0
:1045D00000F05CF9013002D14FF0FF3052E1DBF81E
:1045E00000305A0505D4204629463A46DBF81030FB
:1045F00008E1B8F1650F40F2D080DBE9120100223A
:104600000023FFF785FD50B320462946384A012391
:10461000B0470130E0D00E9B0D9A9A4209DBDBF8DF
:104620000030D80705D4DBF800309F0700F1108177
:1046300007E1204629465246099BB0470130CBD0BE
:1046400000270E9B013B9F42EDDA204629460BF1E5
:104650001A020123B0470130BED00137F1E70D9BAC
:10466000002B29DC20462946214A0123B04701308E
:10467000B2D00D9B2BB90E9B1BB9DBF80030D907CC
:10468000D1D5204629465246099BB0470130A3D0D8
:104690004FF000080D9B5B4298452046294608DAFA
:1046A0000BF11A020123B047013095D008F101083F
:1046B000F0E73A460E9BA5E0DBF858200E9B9A42A5
:1046C000A8BF1A46002A914602DC4FF000081CE001
:1046D000204629463A464B46B0470130F5D17BE7A4
:1046E000CE840008CA840008D6840008D28400085A
:1046F000DA840008204629460BF11A020123B0474C
:1047000001303FF469AF08F10108DBF85830B9F126
:10471000000FACBFC9EB03021A469045EADB07EB7A
:1047200003080D9A0E9B9A4210DBDBF80030DA0783
:104730000CD40E9A1744C8EB07030D9FD21B93426B
:10474000A8BF1346002B1F4608DC0EE02046294672
:104750005246099BB0470130EBD13DE72046294640
:104760004246B04701303FF437AF4FF000080AE04F
:10477000204629460BF11A020123B04701303FF4CD
:104780002BAF08F101080D9A0E9B002FA3EB02033B
:10479000A8BFDB1B9845EBDB45E70E9A012A01DC3D
:1047A000DB0736D5204629463A460123B04701307B
:1047B0003FF412AF204629465246099BB0470130CC
:1047C0003FF40AAFDBE9120100220023FFF7A0FC4F
:1047D000E8B90E9B204629467A1C013B1DE0204685
:1047E00029460BF11A020123B04701303FF4F4AE21
:1047F00001370E9B013B9F42F1DB204629460BF11E
:1048000050024B46B04701307FF40DAFE4E600277D
:10481000EFE7204629463A460123B0470130ECD164
:10482000DAE6204629460BF119020123B047013090
:104830003FF4D2AE0137DBF80C300F9A9B1A9F423F
:10484000EFDBDBF80C000F9B9842B8BF184619E06D
:104850000027F0E743F480638DE80C00CBF80030CC
:104860000DF1330302930DAB03930EAB05930023BD
:104870000693CDF810802046DDE90A23FFF731FDCD
:10488000074640E611B0BDE8F08F00BF2DE9F843C0
:1048900091461F468A680B69DDF820809342B8BFB5
:1048A0001346C9F8003091F8432006460C4612B171
:1048B0000133C9F800302368990642BFD9F80030A7
:1048C0000233C9F80030256815F006051CD094F8AD
:1048D00043302268003318BF012392061FD5E11828
:1048E0005A1C302081F84300224494F8451082F885
:1048F0004310023313E03046394604F11902012314
:10490000C047013007D00135E368D9F800209B1A71
:104910009D42F0DBDBE74FF0FF30BDE8F883304627
:10492000394604F14302C0470130F4D02268D9F877
:104930000050E36802F00602042A08BF5D1B2269EA
:10494000A3680CBF25EAE57500259342C4BF9B1AF6
:10495000ED184FF00009A9450ADA3046394604F14E
:104960001A020123C0470130D5D009F10109F2E74D
:104970000020BDE8F88300002DE9FF410C461746F2
:10498000227E6E2A984606460A9B01F1430100F0FA
:10499000A98012D8632A23D00AD8002A00F0B68052
:1049A000582A40F0C58084F84520DFF8F8E151E04E
:1049B000642A1ED0692A1CD0BAE0732A00F0AA80AB
:1049C00009D86F2A2BD0702A40F0B280226842F0BA
:1049D0002002226039E0752A21D0782A35D0A7E05C
:1049E0001A68111D1960136884F8423004F14205F9
:1049F000A2E020681A6810F0800F03D0101D186024
:104A0000136805E04506F9D5101D1860B2F90030AD
:104A1000002B3BDA2D225B4284F8432036E02068ED
:104A20001A6810F0800F03D0101D1860136804E09E
:104A30004006F9D5101D18601388227EDFF864E166
:104A40006F2A0CBF08220A221CE07822DFF858E106
:104A500084F845202268186812F0800F00F10405E0
:104A60001D6001D0036802E05506FBD50388D0071E
:104A700044BF42F0200222601BB9226822F02002CB
:104A800022601022002084F8430002E0DFF814E1E5
:104A90000A226568A560002DA2BF206820F00400EE
:104AA000206003B965B10D46B3FBF2F002FB103391
:104AB0001EF8033005F8013D03460028F4D100E05C
:104AC0000D46082A0BD12368DA0708D523696268E6
:104AD0009A42DEBF302305F8013C05F1FF35491B42
:104AE00021612EE025681A68606915F0800F03D0F7
:104AF000151D1D60136808E015F0400F02F1040554
:104B00001D60136801D0188000E018600023236145
:104B10000D4616E01A68111D19601568626828466E
:104B2000002102F0BDFA08B1401B6060636804E038
:104B300004F1420584F8422001232361002384F814
:104B40004330CDF800803046214603AA3B46FFF7AC
:104B50009DFE013002D14FF0FF301FE03046394654
:104B60002A462369C0470130F5D023689B0705D446
:104B7000E068039B9842B8BF18460FE00025E36841
:104B8000039A9B1A9D42F3DA3046394604F1190222
:104B90000123C0470130DED00135F0E704B0BDE8A5
:104BA000F08100BFDC840008ED8400082DE9F04F9F
:104BB00099468B6815465A1EB2F5AE7F81BF6FF4D9
:104BC000AE7203EB020C40F25D138B600B680F4674
:104BD00043F4F06387B047F81C3B4FF0000B0646E8
:104BE0000C4698BF4FF0000CB8465A46CDF80CB0B2
:104BF000CDF808B0DA46CDF804B0A168002900F07D
:104C0000EC802B681B78492B70D016D8392B0DD827
:104C1000312B40D22D2B46D002D82B2B43D0DCE0B9
:104C20002E2B00F09280302B23D0D6E0452B00F0C5
:104C30009580462B77D0412B0CE0652B00F08E80C1
:104C40000AD8542B75D002D84E2B34D0C5E0592B3E
:104C500075D0612B46D0C0E06E2B2CD004D8662BCB
:104C600061D0692B42D0B8E0742B62D0792B66D02A
:104C7000B3E0206810F4807F0DD020F08000206029
:104C80000AF1010ABCF1000F00F08A8001310CF139
:104C9000FF3CA16084E012EB0B0F40F09E80216886
:104CA00021F4C07105E02168080640F1968021F0EA
:104CB0008001216070E06AB9BAF1000F0CD121685F
:104CC00001F4E060B0F5E06F06D121F4F0612160FD
:104CD000012261E0022A5ED0BBF1010F1ED0BBF1C0
:104CE000040F1AE0012A78D1022255E0BBF1000F2F
:104CF0000ED1BAF1000F73D1216801F4E060B0F574
:104D0000E06F71D121F4F06121604FF0010B43E0BD
:104D1000BBF1030F02D0BBF1050F5ED10BF1010B0C
:104D20005FFA8BFB38E0BBF1020F56D14FF0030B5B
:104D300032E0BBF1060F50D14FF0070B2CE0BBF176
:104D4000070F4AD14FF0080B26E02168880544D5AB
:104D500021F420712160CDF804A01DE0216801F448
:104D6000A060B0F5806F04D0480536D5BAF1000FC9
:104D70003AD088055CBF0198CDF80C8021F4F06131
:104D800058BFC0EB0A0041F4C07158BF02902160C7
:104D90004FF0000A00E0032288F8003008F1010813
:104DA000A368013BA3602369013323616B68013B66
:104DB000002B6B6003DD2B6801332B601DE7D4F8FB
:104DC0008031059230462946CDF810C09847DDF86D
:104DD00010C0059A00283FF410AFBAF1000F03D0BD
:104DE000236823F480732360013A012A0ED8B84562
:104DF0000AD9D4F87C3118F8011D30462A46984764
:104E00002369013B2361F2E70125AEE00BF1FF339B
:104E1000062B22D8BBF1020F12D9ABF1030B5FFABC
:104E20008BFBCBEB080BD84517D0D4F87C3118F8A6
:104E3000011D30462A4698472369013B2361F2E76A
:104E4000B845E1D9D4F87C3118F8011D30462A461E
:104E500098472369013B2361F2E72368DA052CD5E3
:104E60005B050CD5B845CFD9D4F87C3118F8011DB5
:104E700030462A4698472369013B2361F2E718F838
:104E8000011C2369652903F1FF3308F1FF3B23610E
:104E90000DD045290BD0D4F87C3130462A469847AE
:104EA000236918F8021C013BA8F1020B2361D4F816
:104EB0007C3130462A469847D846256815F01005BB
:104EC00052D188F80050236803F4C063B3F5806FB3
:104ED00005D1019BC3EB0A035A426BB916E0029B52
:104EE000A3B1039B2A46591C30460A2300F0E8FE72
:104EF000029BDDF80C80C21A04F26F13984528BF9C
:104F000004F5B77840461B4900F064F8304639464E
:104F1000002200F0C1F82268D9F8003012F0020F28
:104F200006460F4603D01A1DC9F8002006E012F00D
:104F3000040F03F10402C9F8002003D01B68C3E981
:104F400000670DE0D3F8008000F016F810B900F00B
:104F50003DF803E030463946FFF734F9C8F8000061
:104F6000E3680133E36000E00025284607B0BDE8B0
:104F7000F08F00BFFE8400080A4631F0004110B5F2
:104F800003461BD00F48A2F58014844210D902F1C9
:104F9000FF420C4802F5E002824209D9B1F5801FB8
:104FA00008D3094A914207D1B3FA83F0400910BDF2
:104FB000042010BD032010BD002010BD0028E6D144
:104FC000022010BDFFFFDF7F0000F07F0048704728
:104FD0000000C07F0EB400B59CB04FF40271ADF874
:104FE00014106FF00041049107914FF6FF711DAB53
:104FF000ADF81610084953F8042B02900690086883
:10500000019302A902F054FD029B00221A701CB009
:105010005DF804EB03B0704728010020034613F845
:10502000012B002AFBD1181A0138704730B50368EC
:1050300011F8014B01334CB11A78A2F14105192D39
:1050400098BF2032A242F3D0002030BD036001207F
:1050500030BD2DE9F0410F46904602F0FDFA0446BE
:105060000D46B8F1000F11D0C7F30A53C3F16B031B
:10507000002B0BDD1B0503F17F55002405F54015C2
:1050800022462B46FEF7DCFDBDE8F081204629468E
:10509000BDE8F081000000002DE9F04F9FB0002333
:1050A00083468A4616921A934FF000084FF0000983
:1050B0001991199B1A780D2A05D8092A13D2002AAA
:1050C00000F0BE8112E02B2A06D02D2A02D0202A21
:1050D0000CD108E0012200E0002209925A1C19922A
:1050E0005B782BB9ACE101331993E2E70023099314
:1050F000199C2378302B5CD16378582B01D0782B06
:105100004CD11AAB0093099B0193584619A9B14A97
:105110001BAB01F0F8FC10F00706054600F09B857C
:10512000062E05D1013400231994099300F093BD94
:105130001A9A3AB11CA8352102F07CFB58461A99FC
:1051400001F0F2FF1B9A062E21D8DFE806F0040DCD
:1051500008171C0D04004FF00009C84617E0DDF8E1
:105160007080DDF8749012E01D9BDDF8708002F213
:10517000334223F4801343EA025908E0DFF85892DF
:105180004FF0000803E06FF000494FF0FF382907A7
:1051900040F1618549F0004900F05DBD199B5A1C42
:1051A00019925B78302BF9D0002B00F05485012345
:1051B00000E0002300260493199B059303963546CF
:1051C000199C2778A7F13003DAB2092A10D8082DE4
:1051D000D8BF03994FF00A02D8BF02FB013304F194
:1051E0000104D4BF039302FB063601351994E7E7A7
:1051F000584601F049FF01680291584601F044FF0A
:105200000068FFF70BFF02990246204602F052FDAC
:1052100028B100203B462C46029007465DE00290F4
:10522000584601F031FF0068FFF7F8FE199B02991C
:105230001A1819921B5C002D47D12846302B05D136
:10524000199B5A1C199201305B78F7E7A3F13102E0
:10525000082A48D8199A0290002005920446303B4B
:1052600000F101012BD0029A0A440292071921464B
:10527000B94213D0013101F1FF3EBEF1080F06DC47
:10528000039A4FF00A0E0EFB02F20392F0E7102988
:10529000DCBF4FF00A0E0EFB06F6E9E720440828B3
:1052A00000F1010405DC039A0A2101FB0233039398
:1052B00004E0102CDCBF0A2101FB06360021199BFB
:1052C000581C19905B78084602E02C46084602916B
:1052D000A3F130010929C2D90127652B01D0452B43
:1052E00060D174B905E0652B40F0C38400230293BC
:1052F000012728B9049B002B00F0A280044600E09F
:105300000024DDF864A00AF1010319939AF8013032
:105310002B2B07D02D2B02D04FF0000C09E04FF0C3
:10532000010C01E04FF0000C0AF1020319939AF806
:105330000230A3F13001092932D81946302904D1AD
:10534000199B591C19915978F8E7A1F1310EBEF15A
:10535000080F0B4626D8199B06933039199B03F189
:10536000010ECDF864E05B78A3F13002092A05D87C
:105370004FF00A0E0EFB01313039EFE7069AC2EB0F
:105380000E0EBEF1080F44F61F6E03DC7145A8BF78
:10539000714600E07146BCF1000F04D0494202E0C2
:1053A000CDF864A00021002C54D1002840F0538493
:1053B000049A002A40F04F84002F41D14E2B20D078
:1053C00002DC492B0AD03BE0692B07D06E2B18D0AA
:1053D00036E000BF048500080000F07F19A8A64948
:1053E000FFF724FE60B3199BA449013B19A8199348
:1053F000FFF71CFE10B9199B01331993DFF8949243
:105400001AE019A89E49FFF711FEC8B1199B1B7835
:10541000282B0FD119A89B491CAA01F0ABFD052828
:1054200008D11D9BDDF8708043F0FF4949F4E00985
:1054300000F011BCDFF860924FF0000800F00BBCE8
:10544000169BCDF864A0002B00F010840023099374
:1054500000F003BC029B0398CB1A002D14BFAA4690
:10546000A246102C25460493A8BF1025FEF772FB18
:10547000092D8046894613DD834B03EBC50353E9B1
:105480001223FEF7DDFB804630468946FEF762FBBD
:1054900002460B4640464946FEF720FA80468946BA
:1054A0000F2C37DC049B002B00F0D58324DD162B5A
:1054B00007DC754A02EBC302D2E900014B464246C3
:1054C00015E0049AC4F125039A4223DC6E4DC4F121
:1054D0000F0405EBC403D3E9000142464B46FEF737
:1054E000AFFB049B1C1B05EBC405D5E90023FEF7AD
:1054F000A7FB80468946AEE3049B13F1160F09DB38
:10550000614AA2EBC30240464946D2E90023FEF7B6
:10551000C1FCEEE7049B651B1D44002D54DD15F016
:105520000F020AD0584B03EBC203D3E900014246F5
:105530004B46FEF785FB8046894635F00F0500F0A7
:10554000B180B5F59A7F0BDD0024A2460594039443
:105550002223CBF80030DFF83C914FF0000880E1C7
:105560004946DFF838912D11404600274E46012D5F
:105570000ADDEA0703D5D9E90023FEF761FB01370D
:105580006D1009F10809F2E78046A1F1547906EBA4
:10559000C70642464B46D6E90001FEF751FB21F013
:1055A000004389460A461B0D38491B058B4280463D
:1055B000CAD8A1F580118B4286BFDFF8E4904FF086
:1055C000FF3802F154796DE06CD06D4215F00F0296
:1055D0000AD02D4B03EBC20340464946D3E90023D2
:1055E000FEF758FC804689462D115BD01F2D04DD47
:1055F0000024A246059403942CE115F0100F0CBF73
:1056000000236A23224E029340464946002D08DDBE
:10561000EB0703D5D6E90023FEF712FB6D10083621
:10562000F4E7029B80468946EBB1C1F30A53C3F10C
:105630006B03002B0A4616DD1F2B0EDD342BDEBF5D
:10564000203B4FF0FF3101FA03F34FF00008CCBFCD
:105650004FF05C7903EA020905E04FF0FF3202FAED
:1056600003F303EA00084046494600220023FEF700
:105670004FFD0028BCD117E0CF84000858860008F1
:10568000D784000840850008708600080000A07CD0
:10569000188500080000F07F0000F8FF3887000838
:1056A000FFFFEF7F00230293039B00935846059969
:1056B0005246234601F08DFD059000283FF444AF8B
:1056C000049A049B002AC3F100034FF00004A8BF12
:1056D00000231293A246059B5846596801F0EFFC3F
:1056E000039000283FF434AF059B1A69059B0232F2
:1056F00003F10C0192000C30FEF7E0FD1BAB0093B0
:105700001CAB0193584642464B46CDE90A8902F04C
:1057100016F81A9000283FF41BAF5846012101F0FB
:10572000E5FD824600283FF413AF049B02991C9DBF
:1057300023EAE37308931B9B002BADBF129A089AD0
:10574000129ED618B8BFD21AA3EB01032B446FF4F4
:105750007F71A8BF089A8B42C5F1360580F286801A
:10576000C91A1F29A5EB0105C8BFB3494FF00100B5
:10577000D5BF00FA01F3C91A139300FA01F3D9BF98
:1057800000230693069313907719029BB7421544A2
:105790001D443B46A8BF3346AB42A8BF2B46002B57
:1057A000C2BFFF1AED1AF61A129B002B63D1002F0D
:1057B0007ADC089B002B40F08180002D00F388806C
:1057C000002E00F38F8058461A99039A01F0E5FEE7
:1057D000044600283FF4BCAEC36808930023C360AE
:1057E000514601F0BEFE002880F28A80089B002B03
:1057F00040F00A82B8F1000F40F00682C9F31303AB
:10580000002B40F0018229F000431B0D1B05B3F172
:10581000D66F40F2F9816369002B6DD021460122D9
:10582000584601F04BFE5146044601F09AFE00280E
:1058300040F3EA8129F00043029A1B0D1B05002A60
:1058400000F08D80B3F1D66F00F38980B3F15C7FF7
:1058500000F3DC8122234FF000084FF00009CBF861
:105860000030059B002B40F0E281F4E10023069319
:105870000123139388E7514658461A4601F0D0FD9C
:10588000824600283FF464AE584651461A9A01F009
:1058900036FD179000283FF45BAE58461A9901F088
:1058A00043FC179B1A9382E758461A993A4601F02F
:1058B00005FE1A9000287FF47CAF49E6584603990C
:1058C000089A01F0ADFD039000287FF476AF3FE623
:1058D000584603992A4601F0F1FD039000287FF411
:1058E0006FAF35E651465846324601F0E7FD824635
:1058F00000287FF468AF2BE62369012B8EDC83E15F
:1059000062D1089AC9F3130322B34C498B424A4629
:105910002ED1029B414663B1494B1340B3F1D46F82
:1059200007D81B0DC3F16B034FF0FF3000FA03F3F0
:1059300001E04FF0FF3399421AD1424B9A4202D113
:1059400001313FF405AE3E4B134003F580194FF093
:10595000000859E163B9B8F1000F09D16AE7A3F56E
:1059600080136FEA13596FEA09594FF0FF384BE182
:10597000069B13B113EA090F02E0139B13EA080F09
:1059800000F04281089B029A4046494653B1FFF716
:1059900060FB02460B46DDE90A01FDF79FFF8046EA
:1059A000894631E1FFF755FB02460B46DDE90A0166
:1059B000FDF792FF0022002380468946FEF7A8FBF0
:1059C00000287FF447AF1FE12046514601F009FF50
:1059D00000224FF0804306460F46FEF7ADFB00283D
:1059E00041D0089B13B10022174B0FE0B8F1000F14
:1059F00003D1C9F313033BB90DE0B8F1010F03D193
:105A0000B9F1000F3FF426AF104B0022CDE9062379
:105A100000260D4F3CE03046394600220A4BFEF787
:105A200081FBB8B9304639460022094BFEF708F928
:105A300006460F4610E000BFE3FBFFFFFFFF0F002D
:105A40000000F07FFFFFEF7F0000F03F0000F0BF9D
:105A50000000E03F944F002607F100431496159391
:105A6000DDE9142312E0304639468F4B0022FEF761
:105A7000E7F8089B06460F4623B901F100430E9054
:105A80000F9301E0CDE90E67DDE90E23CDE9062392
:105A900029F000452D0D854B2D059D422DD1DDE9C9
:105AA0000A23A9F1547940464946CDE90C2301F077
:105AB000D3FD02460B46DDE90601FEF7C1F80246BA
:105AC0000B4640464946FDF709FF21F000431B0DF8
:105AD000774A1B05934280460CD9764B0D9A9A4221
